{
  "contractName": "Orders",
  "abi": [
    {
      "inputs": [],
      "payable": false,
      "stateMutability": "nonpayable",
      "type": "constructor"
    },
    {
      "constant": false,
      "inputs": [
        {
          "name": "id",
          "type": "string"
        },
        {
          "name": "totalPrice",
          "type": "uint256"
        },
        {
          "name": "deliveryDate",
          "type": "uint256"
        }
      ],
      "name": "add",
      "outputs": [],
      "payable": false,
      "stateMutability": "nonpayable",
      "type": "function"
    },
    {
      "constant": true,
      "inputs": [
        {
          "name": "id",
          "type": "string"
        }
      ],
      "name": "get",
      "outputs": [
        {
          "name": "status",
          "type": "uint8"
        },
        {
          "name": "createdDate",
          "type": "uint256"
        },
        {
          "name": "deliveryDate",
          "type": "uint256"
        },
        {
          "name": "deliveredDate",
          "type": "uint256"
        }
      ],
      "payable": false,
      "stateMutability": "view",
      "type": "function"
    }
  ],
  "bytecode": "0x608060405234801561001057600080fd5b5060008054600160a060020a03191633179055610671806100326000396000f3fe60806040526004361061004b5763ffffffff7c0100000000000000000000000000000000000000000000000000000000600035041663693ec85e8114610050578063c8616da51461012d575b600080fd5b34801561005c57600080fd5b506101036004803603602081101561007357600080fd5b81019060208101813564010000000081111561008e57600080fd5b8201836020820111156100a057600080fd5b803590602001918460018302840111640100000000831117156100c257600080fd5b91908080601f0160208091040260200160405190810160405280939291908181526020018383808284376000920191909152509295506101e7945050505050565b6040805160ff90951685526020850193909352838301919091526060830152519081900360800190f35b34801561013957600080fd5b506101e56004803603606081101561015057600080fd5b81019060208101813564010000000081111561016b57600080fd5b82018360208201111561017d57600080fd5b8035906020019184600183028401116401000000008311171561019f57600080fd5b91908080601f01602080910402602001604051908101604052809392919081815260200183838082843760009201919091525092955050823593505050602001356103e6565b005b6000806000806101f5610568565b6001866040518082805190602001908083835b602083106102275780518252601f199092019160209182019101610208565b518151600019602094850361010090810a82019283169219939093169190911790925294909201968752604080519788900382018820805460e0601f600260018416159099029096019091169690960493840183900490920288018501905260c08701828152909550869450928592508401828280156102e85780601f106102bd576101008083540402835291602001916102e8565b820191906000526020600020905b8154815290600101906020018083116102cb57829003601f168201915b5050509183525050600182015460208201526002820154604082015260038083015460609092019160ff169081111561031d57fe5b600381111561032857fe5b8152602001600482015481526020016005820154815250509050600081608001511115156103b757604080517f08c379a000000000000000000000000000000000000000000000000000000000815260206004820152600f60248201527f4f524445525f4e4f545f464f554e440000000000000000000000000000000000604482015290519081900360640190fd5b806060015160038111156103c757fe5b816080015182604001518360a001519450945094509450509193509193565b60005473ffffffffffffffffffffffffffffffffffffffff16331461046c57604080517f08c379a000000000000000000000000000000000000000000000000000000000815260206004820152600c60248201527f554e415554484f52495a45440000000000000000000000000000000000000000604482015290519081900360640190fd5b6040805160c08101825284815260208101849052908101829052606081016000815260200142815260200160008152506001846040518082805190602001908083835b602083106104ce5780518252601f1990920191602091820191016104af565b51815160209384036101000a600019018019909216911617905292019485525060405193849003810190932084518051919461050f945085935001906105aa565b50602082015181600101556040820151816002015560608201518160030160006101000a81548160ff0219169083600381111561054857fe5b02179055506080820151600482015560a090910151600590910155505050565b60c0604051908101604052806060815260200160008152602001600081526020016000600381111561059657fe5b815260200160008152602001600081525090565b828054600181600116156101000203166002900490600052602060002090601f016020900481019282601f106105eb57805160ff1916838001178555610618565b82800160010185558215610618579182015b828111156106185782518255916020019190600101906105fd565b50610624929150610628565b5090565b61064291905b80821115610624576000815560010161062e565b9056fea165627a7a723058209ca860de00355bd7739230e44203665fb38a66b8401a084b061ce56fcc3c76d60029",
  "source": "pragma solidity ^0.5.0;\n\ncontract Orders {\n  enum Status {Created, Paid, Delivered, Refunded}\n\n  struct Order {\n          string id;\n          uint256 totalPrice;\n          uint256 deliveryDate;\n          Status status;\n          uint256 createdDate;\n          uint256 deliveredDate;\n      }\n\n  address owner;\n\n  // to be able to store and query orders according to order id\n  mapping(string => Order) orders;\n\n  modifier onlyOwner {\n          require(msg.sender == owner, \"UNAUTHORIZED\");\n          _;\n      }\n\n  constructor() public {\n          owner = msg.sender;\n      }\n\n  // receive order information, only contract owner should be able to call this function.\n  function add(string memory id, uint256 totalPrice, uint256 deliveryDate) public onlyOwner {\n          orders[id] = Order(id, totalPrice, deliveryDate, Status.Created, block.timestamp, 0);\n      }\n\n  function get(string memory id) public view returns (uint8 status, uint256 createdDate, uint256 deliveryDate,\n  uint256 deliveredDate) {\n\n          Order memory order = orders[id];\n          require(order.createdDate > 0, \"ORDER_NOT_FOUND\");\n\n        return (uint8(order.status), order.createdDate, order.deliveryDate, order.deliveredDate);\n      }\n}\n",
  "sourcePath": "/Users/appcent/order-delivery-blockchain/contracts/Orders.sol",
  "compiler": {
    "name": "solc",
    "version": "0.5.0+commit.1d4f565a.Emscripten.clang"
  },
  "schemaVersion": "3.0.1",
  "updatedAt": "2022-04-03T20:53:21.827Z",
  "devdoc": {
    "methods": {}
  },
  "userdoc": {
    "methods": {}
  }
}